{
    "contractName": "FriesDAOTokenSale",
    "abi": [
        {
            "inputs": [
                {
                    "internalType": "address",
                    "name": "usdc",
                    "type": "address"
                },
                {
                    "internalType": "address",
                    "name": "fries",
                    "type": "address"
                }
            ],
            "stateMutability": "nonpayable",
            "type": "constructor"
        },
        {
            "anonymous": false,
            "inputs": [
                {
                    "indexed": true,
                    "internalType": "address",
                    "name": "previousOwner",
                    "type": "address"
                },
                {
                    "indexed": true,
                    "internalType": "address",
                    "name": "newOwner",
                    "type": "address"
                }
            ],
            "name": "OwnershipTransferred",
            "type": "event"
        },
        {
            "anonymous": false,
            "inputs": [
                {
                    "indexed": false,
                    "internalType": "bool",
                    "name": "active",
                    "type": "bool"
                }
            ],
            "name": "PublicSaleActiveChanged",
            "type": "event"
        },
        {
            "anonymous": false,
            "inputs": [
                {
                    "indexed": true,
                    "internalType": "address",
                    "name": "account",
                    "type": "address"
                },
                {
                    "indexed": false,
                    "internalType": "uint256",
                    "name": "amount",
                    "type": "uint256"
                }
            ],
            "name": "Purchased",
            "type": "event"
        },
        {
            "anonymous": false,
            "inputs": [
                {
                    "indexed": false,
                    "internalType": "bool",
                    "name": "active",
                    "type": "bool"
                }
            ],
            "name": "RedeemActiveChanged",
            "type": "event"
        },
        {
            "anonymous": false,
            "inputs": [
                {
                    "indexed": true,
                    "internalType": "address",
                    "name": "account",
                    "type": "address"
                },
                {
                    "indexed": false,
                    "internalType": "uint256",
                    "name": "amount",
                    "type": "uint256"
                }
            ],
            "name": "Redeemed",
            "type": "event"
        },
        {
            "anonymous": false,
            "inputs": [
                {
                    "indexed": false,
                    "internalType": "bool",
                    "name": "active",
                    "type": "bool"
                }
            ],
            "name": "RefundActiveChanged",
            "type": "event"
        },
        {
            "anonymous": false,
            "inputs": [
                {
                    "indexed": true,
                    "internalType": "address",
                    "name": "account",
                    "type": "address"
                },
                {
                    "indexed": false,
                    "internalType": "uint256",
                    "name": "amount",
                    "type": "uint256"
                }
            ],
            "name": "Refunded",
            "type": "event"
        },
        {
            "anonymous": false,
            "inputs": [
                {
                    "indexed": false,
                    "internalType": "uint256",
                    "name": "price",
                    "type": "uint256"
                }
            ],
            "name": "SalePriceChanged",
            "type": "event"
        },
        {
            "anonymous": false,
            "inputs": [
                {
                    "indexed": false,
                    "internalType": "uint256",
                    "name": "amount",
                    "type": "uint256"
                }
            ],
            "name": "WhitelistCapChanged",
            "type": "event"
        },
        {
            "anonymous": false,
            "inputs": [
                {
                    "indexed": false,
                    "internalType": "bool",
                    "name": "active",
                    "type": "bool"
                }
            ],
            "name": "WhitelistSaleActiveChanged",
            "type": "event"
        },
        {
            "inputs": [],
            "name": "FRIES",
            "outputs": [
                {
                    "internalType": "contract IFriesDAOToken",
                    "name": "",
                    "type": "address"
                }
            ],
            "stateMutability": "view",
            "type": "function"
        },
        {
            "inputs": [],
            "name": "USDC",
            "outputs": [
                {
                    "internalType": "contract IERC20",
                    "name": "",
                    "type": "address"
                }
            ],
            "stateMutability": "view",
            "type": "function"
        },
        {
            "inputs": [
                {
                    "internalType": "uint256",
                    "name": "value",
                    "type": "uint256"
                }
            ],
            "name": "buyFries",
            "outputs": [],
            "stateMutability": "payable",
            "type": "function"
        },
        {
            "inputs": [
                {
                    "internalType": "uint256",
                    "name": "value",
                    "type": "uint256"
                }
            ],
            "name": "buyWhitelistFries",
            "outputs": [],
            "stateMutability": "payable",
            "type": "function"
        },
        {
            "inputs": [],
            "name": "owner",
            "outputs": [
                {
                    "internalType": "address",
                    "name": "",
                    "type": "address"
                }
            ],
            "stateMutability": "view",
            "type": "function"
        },
        {
            "inputs": [],
            "name": "publicSaleActive",
            "outputs": [
                {
                    "internalType": "bool",
                    "name": "",
                    "type": "bool"
                }
            ],
            "stateMutability": "view",
            "type": "function"
        },
        {
            "inputs": [
                {
                    "internalType": "address",
                    "name": "",
                    "type": "address"
                }
            ],
            "name": "purchased",
            "outputs": [
                {
                    "internalType": "uint256",
                    "name": "",
                    "type": "uint256"
                }
            ],
            "stateMutability": "view",
            "type": "function"
        },
        {
            "inputs": [],
            "name": "redeemActive",
            "outputs": [
                {
                    "internalType": "bool",
                    "name": "",
                    "type": "bool"
                }
            ],
            "stateMutability": "view",
            "type": "function"
        },
        {
            "inputs": [],
            "name": "redeemFries",
            "outputs": [],
            "stateMutability": "nonpayable",
            "type": "function"
        },
        {
            "inputs": [
                {
                    "internalType": "address",
                    "name": "",
                    "type": "address"
                }
            ],
            "name": "redeemed",
            "outputs": [
                {
                    "internalType": "uint256",
                    "name": "",
                    "type": "uint256"
                }
            ],
            "stateMutability": "view",
            "type": "function"
        },
        {
            "inputs": [],
            "name": "refundActive",
            "outputs": [
                {
                    "internalType": "bool",
                    "name": "",
                    "type": "bool"
                }
            ],
            "stateMutability": "view",
            "type": "function"
        },
        {
            "inputs": [
                {
                    "internalType": "uint256",
                    "name": "amount",
                    "type": "uint256"
                }
            ],
            "name": "refundFries",
            "outputs": [],
            "stateMutability": "nonpayable",
            "type": "function"
        },
        {
            "inputs": [],
            "name": "renounceOwnership",
            "outputs": [],
            "stateMutability": "nonpayable",
            "type": "function"
        },
        {
            "inputs": [],
            "name": "salePrice",
            "outputs": [
                {
                    "internalType": "uint256",
                    "name": "",
                    "type": "uint256"
                }
            ],
            "stateMutability": "view",
            "type": "function"
        },
        {
            "inputs": [
                {
                    "internalType": "bool",
                    "name": "active",
                    "type": "bool"
                }
            ],
            "name": "setPublicSaleActive",
            "outputs": [],
            "stateMutability": "nonpayable",
            "type": "function"
        },
        {
            "inputs": [
                {
                    "internalType": "bool",
                    "name": "active",
                    "type": "bool"
                }
            ],
            "name": "setRedeemActive",
            "outputs": [],
            "stateMutability": "nonpayable",
            "type": "function"
        },
        {
            "inputs": [
                {
                    "internalType": "bool",
                    "name": "active",
                    "type": "bool"
                }
            ],
            "name": "setRefundActive",
            "outputs": [],
            "stateMutability": "nonpayable",
            "type": "function"
        },
        {
            "inputs": [
                {
                    "internalType": "uint256",
                    "name": "price",
                    "type": "uint256"
                }
            ],
            "name": "setSalePrice",
            "outputs": [],
            "stateMutability": "nonpayable",
            "type": "function"
        },
        {
            "inputs": [
                {
                    "internalType": "uint256",
                    "name": "amount",
                    "type": "uint256"
                }
            ],
            "name": "setWhitelistCap",
            "outputs": [],
            "stateMutability": "nonpayable",
            "type": "function"
        },
        {
            "inputs": [
                {
                    "internalType": "bool",
                    "name": "active",
                    "type": "bool"
                }
            ],
            "name": "setWhitelistSaleActive",
            "outputs": [],
            "stateMutability": "nonpayable",
            "type": "function"
        },
        {
            "inputs": [],
            "name": "totalCap",
            "outputs": [
                {
                    "internalType": "uint256",
                    "name": "",
                    "type": "uint256"
                }
            ],
            "stateMutability": "view",
            "type": "function"
        },
        {
            "inputs": [],
            "name": "totalPurchased",
            "outputs": [
                {
                    "internalType": "uint256",
                    "name": "",
                    "type": "uint256"
                }
            ],
            "stateMutability": "view",
            "type": "function"
        },
        {
            "inputs": [
                {
                    "internalType": "address",
                    "name": "newOwner",
                    "type": "address"
                }
            ],
            "name": "transferOwnership",
            "outputs": [],
            "stateMutability": "nonpayable",
            "type": "function"
        },
        {
            "inputs": [
                {
                    "internalType": "address",
                    "name": "",
                    "type": "address"
                }
            ],
            "name": "whitelist",
            "outputs": [
                {
                    "internalType": "bool",
                    "name": "",
                    "type": "bool"
                }
            ],
            "stateMutability": "view",
            "type": "function"
        },
        {
            "inputs": [
                {
                    "internalType": "address[]",
                    "name": "accounts",
                    "type": "address[]"
                }
            ],
            "name": "whitelistAccounts",
            "outputs": [],
            "stateMutability": "nonpayable",
            "type": "function"
        },
        {
            "inputs": [],
            "name": "whitelistCap",
            "outputs": [
                {
                    "internalType": "uint256",
                    "name": "",
                    "type": "uint256"
                }
            ],
            "stateMutability": "view",
            "type": "function"
        },
        {
            "inputs": [],
            "name": "whitelistCount",
            "outputs": [
                {
                    "internalType": "uint256",
                    "name": "",
                    "type": "uint256"
                }
            ],
            "stateMutability": "view",
            "type": "function"
        },
        {
            "inputs": [],
            "name": "whitelistSaleActive",
            "outputs": [
                {
                    "internalType": "bool",
                    "name": "",
                    "type": "bool"
                }
            ],
            "stateMutability": "view",
            "type": "function"
        },
        {
            "inputs": [
                {
                    "internalType": "uint256",
                    "name": "amount",
                    "type": "uint256"
                }
            ],
            "name": "withdrawUSDC",
            "outputs": [],
            "stateMutability": "nonpayable",
            "type": "function"
        }
    ],
    "bytecode": "60c06040526001805463ffffffff60a01b19169055600060068190556009553480156200002b57600080fd5b5060405162001964380380620019648339810160408190526200004e9162000105565b60016000556200005e3362000096565b6001600160601b0319606092831b8116608052911b1660a052602a6002556508915cc9a9006003556511013a3214406004556200013d565b600180546001600160a01b038381166001600160a01b0319831681179093556040519116919082907f8be0079c531659141344cd1fd0a4f28419497f9722a3daafe3b4186f6b6457e090600090a35050565b80516001600160a01b03811681146200010057600080fd5b919050565b600080604083850312156200011957600080fd5b6200012483620000e8565b91506200013460208401620000e8565b90509250929050565b60805160601c60a05160601c6117d86200018c6000396000818161050801528181610dbf01526110fb01526000818161031d015281816107d701528181610ed201526111e701526117d86000f3fe6080604052600436106101c25760003560e01c80639f4568ef116100f7578063e2e06fa311610095578063f2fde38b11610064578063f2fde38b1461052a578063f51f96dd1461054a578063f634d51914610560578063fd18a9c61461057657600080fd5b8063e2e06fa3146104aa578063e632c2f3146104ca578063f2624b5d146104e0578063f2d06ad4146104f657600080fd5b8063bc8893b4116100d1578063bc8893b414610428578063cb0269bc14610449578063db81f99b1461046a578063de25626b1461048a57600080fd5b80639f4568ef146103c6578063a20e0bca146103f3578063b77b6d231461041357600080fd5b80635855279e1161016457806389a302711161013e57806389a302711461030b5780638da5cb5b1461035757806398831513146103755780639b19251a1461039657600080fd5b80635855279e146102b65780636a78f227146102d6578063715018a6146102f657600080fd5b806327bea43c116101a057806327bea43c146102325780633ad7f56c146102455780633e95e19014610276578063522fe98e1461028957600080fd5b80630dcbf8c6146101c757806316450092146101e95780631919fed714610212575b600080fd5b3480156101d357600080fd5b506101e76101e23660046115e2565b610596565b005b3480156101f557600080fd5b506101ff60045481565b6040519081526020015b60405180910390f35b34801561021e57600080fd5b506101e761022d36600461161c565b610625565b6101e761024036600461161c565b610684565b34801561025157600080fd5b5060015461026690600160a01b900460ff1681565b6040519015158152602001610209565b6101e761028436600461161c565b610909565b34801561029557600080fd5b506101ff6102a43660046114f4565b60076020526000908152604090205481565b3480156102c257600080fd5b506101e76102d1366004611516565b610ad8565b3480156102e257600080fd5b506101e76102f13660046115e2565b610b86565b34801561030257600080fd5b506101e7610c05565b34801561031757600080fd5b5061033f7f000000000000000000000000000000000000000000000000000000000000000081565b6040516001600160a01b039091168152602001610209565b34801561036357600080fd5b506001546001600160a01b031661033f565b34801561038157600080fd5b5060015461026690600160b01b900460ff1681565b3480156103a257600080fd5b506102666103b13660046114f4565b60056020526000908152604090205460ff1681565b3480156103d257600080fd5b506101ff6103e13660046114f4565b60086020526000908152604090205481565b3480156103ff57600080fd5b506101e761040e36600461161c565b610c3b565b34801561041f57600080fd5b506101e7610c9a565b34801561043457600080fd5b5060015461026690600160a81b900460ff1681565b34801561045557600080fd5b5060015461026690600160b81b900460ff1681565b34801561047657600080fd5b506101e761048536600461161c565b610ea6565b34801561049657600080fd5b506101e76104a536600461161c565b610f95565b3480156104b657600080fd5b506101e76104c53660046115e2565b6112ed565b3480156104d657600080fd5b506101ff60095481565b3480156104ec57600080fd5b506101ff60065481565b34801561050257600080fd5b5061033f7f000000000000000000000000000000000000000000000000000000000000000081565b34801561053657600080fd5b506101e76105453660046114f4565b61136c565b34801561055657600080fd5b506101ff60025481565b34801561056c57600080fd5b506101ff60035481565b34801561058257600080fd5b506101e76105913660046115e2565b611407565b6001546001600160a01b031633146105c95760405162461bcd60e51b81526004016105c090611692565b60405180910390fd5b6001805460ff60b81b1916600160b81b8315158102919091179182905560405160ff9190920416151581527fe80908c93fb315e50ba970f3360c8b7341dacd379d428d9d4f63b868e111ed90906020015b60405180910390a150565b6001546001600160a01b0316331461064f5760405162461bcd60e51b81526004016105c090611692565b60028190556040518181527f421d50d68688bdeb8868bd642bc70a6ead1cfb014d1f6d1780538fd56420655c9060200161061a565b600154600160a81b900460ff166106f85760405162461bcd60e51b815260206004820152603260248201527f467269657344414f546f6b656e53616c653a207075626c696320746f6b656e2060448201527173616c65206973206e6f742061637469766560701b60648201526084016105c0565b600081116107185760405162461bcd60e51b81526004016105c090611635565b60025460009061072d8364e8d4a51000611701565b6107379190611701565b905060025460045464e8d4a5100061074f9190611701565b6107599190611701565b8160095461076791906116c7565b11156107cd5760405162461bcd60e51b815260206004820152602f60248201527f467269657344414f546f6b656e53616c653a20616d6f756e74206f766572207460448201526e1bdd185b081cd85b19481b1a5b5a5d608a1b60648201526084016105c0565b6001600160a01b037f0000000000000000000000000000000000000000000000000000000000000000166323b872dd336040516001600160e01b031960e084901b1681526001600160a01b03909116600482015230602482015260448101859052606401602060405180830381600087803b15801561084b57600080fd5b505af115801561085f573d6000803e3d6000fd5b505050506040513d601f19601f8201168201806040525081019061088391906115ff565b5033600090815260076020526040812080548392906108a39084906116c7565b9250508190555080600960008282546108bc91906116c7565b9091555050336000818152600760209081526040918290205491519182527fa512fb2532ca8587f236380171326ebb69670e86a2ba0c4412a3fcca4c3ada9b910160405180910390a25050565b600154600160a01b900460ff166109805760405162461bcd60e51b815260206004820152603560248201527f467269657344414f546f6b656e53616c653a2077686974656c69737420746f6b604482015274656e2073616c65206973206e6f742061637469766560581b60648201526084016105c0565b3360009081526005602052604090205460ff166109ea5760405162461bcd60e51b815260206004820152602260248201527f467269657344414f546f6b656e53616c653a206e6f742077686974656c697374604482015261195960f21b60648201526084016105c0565b60008111610a0a5760405162461bcd60e51b81526004016105c090611635565b600254600090610a1f8364e8d4a51000611701565b610a299190611701565b905060065460025460035464e8d4a51000610a449190611701565b610a4e9190611701565b610a5891906116df565b33600090815260076020526040902054610a739083906116c7565b11156107cd5760405162461bcd60e51b815260206004820152602e60248201527f467269657344414f546f6b656e53616c653a20616d6f756e74206f766572207760448201526d1a1a5d195b1a5cdd081b1a5b5a5d60921b60648201526084016105c0565b6001546001600160a01b03163314610b025760405162461bcd60e51b81526004016105c090611692565b60005b8151811015610b6a57600160056000848481518110610b2657610b26611768565b6020908102919091018101516001600160a01b03168252810191909152604001600020805460ff191691151591909117905580610b6281611737565b915050610b05565b50805160066000828254610b7e91906116c7565b909155505050565b6001546001600160a01b03163314610bb05760405162461bcd60e51b81526004016105c090611692565b6001805460ff60a01b1916600160a01b8315158102919091179182905560405160ff9190920416151581527ff4541b809cbc4e55ca5475347fdff9221269923ec410f9997ddfd3138f5dbf499060200161061a565b6001546001600160a01b03163314610c2f5760405162461bcd60e51b81526004016105c090611692565b610c396000611486565b565b6001546001600160a01b03163314610c655760405162461bcd60e51b81526004016105c090611692565b60038190556040518181527f3c41d7e4e5cf037c2dc00aef5aaef0c16e3d43234f3fb0a387f6e6c269a75aa59060200161061a565b600154600160b01b900460ff16610d115760405162461bcd60e51b815260206004820152603560248201527f467269657344414f546f6b656e53616c653a2072656465656d696e6720666f7260448201527420746f6b656e73206973206e6f742061637469766560581b60648201526084016105c0565b336000908152600860209081526040808320546007909252822054610d369190611720565b905060008111610d995760405162461bcd60e51b815260206004820152602860248201527f467269657344414f546f6b656e53616c653a20696e76616c69642072656465656044820152671b48185b5bdd5b9d60c21b60648201526084016105c0565b3360009081526008602052604081208054839290610db89084906116c7565b90915550507f00000000000000000000000000000000000000000000000000000000000000006001600160a01b031663a9059cbb336040516001600160e01b031960e084901b1681526001600160a01b03909116600482015260248101849052604401602060405180830381600087803b158015610e3557600080fd5b505af1158015610e49573d6000803e3d6000fd5b505050506040513d601f19601f82011682018060405250810190610e6d91906115ff565b5060405181815233907f4896181ff8f4543cc00db9fe9b6fb7e6f032b7eb772c72ab1ec1b4d2e03b93699060200160405180910390a250565b6001546001600160a01b03163314610ed05760405162461bcd60e51b81526004016105c090611692565b7f00000000000000000000000000000000000000000000000000000000000000006001600160a01b031663a9059cbb610f116001546001600160a01b031690565b6040516001600160e01b031960e084901b1681526001600160a01b03909116600482015260248101849052604401602060405180830381600087803b158015610f5957600080fd5b505af1158015610f6d573d6000803e3d6000fd5b505050506040513d601f19601f82011682018060405250810190610f9191906115ff565b5050565b60026000541415610fe85760405162461bcd60e51b815260206004820152601f60248201527f5265656e7472616e637947756172643a207265656e7472616e742063616c6c0060448201526064016105c0565b6002600055600154600160b81b900460ff1661106c5760405162461bcd60e51b815260206004820152603a60248201527f467269657344414f546f6b656e53616c653a20726566756e64696e672072656460448201527f65656d656420746f6b656e73206973206e6f742061637469766500000000000060648201526084016105c0565b336000908152600860205260409020548111156110f15760405162461bcd60e51b815260206004820152603c60248201527f467269657344414f546f6b656e53616c653a20726566756e6420616d6f756e7460448201527f206c6172676572207468616e20746f6b656e732072656465656d65640000000060648201526084016105c0565b6001600160a01b037f0000000000000000000000000000000000000000000000000000000000000000166379cc6790336040516001600160e01b031960e084901b1681526001600160a01b03909116600482015260248101849052604401600060405180830381600087803b15801561116957600080fd5b505af115801561117d573d6000803e3d6000fd5b50505050806007600061118d3390565b6001600160a01b03166001600160a01b0316815260200190815260200160002060008282546111bc9190611720565b909155505033600090815260086020526040812080548392906111e0908490611720565b90915550507f00000000000000000000000000000000000000000000000000000000000000006001600160a01b031663a9059cbb3360025461122764e8d4a51000866116df565b61123191906116df565b6040516001600160e01b031960e085901b1681526001600160a01b0390921660048301526024820152604401602060405180830381600087803b15801561127757600080fd5b505af115801561128b573d6000803e3d6000fd5b505050506040513d601f19601f820116820180604052508101906112af91906115ff565b5060405181815233907fd7dee2702d63ad89917b6a4da9981c90c4d24f8c2bdfd64c604ecae57d8d06519060200160405180910390a2506001600055565b6001546001600160a01b031633146113175760405162461bcd60e51b81526004016105c090611692565b6001805460ff60a81b1916600160a81b8315158102919091179182905560405160ff9190920416151581527f4f6001447c4177b3a74155b757f83799bfc007b8a5cac3732724f421c62420539060200161061a565b6001546001600160a01b031633146113965760405162461bcd60e51b81526004016105c090611692565b6001600160a01b0381166113fb5760405162461bcd60e51b815260206004820152602660248201527f4f776e61626c653a206e6577206f776e657220697320746865207a65726f206160448201526564647265737360d01b60648201526084016105c0565b61140481611486565b50565b6001546001600160a01b031633146114315760405162461bcd60e51b81526004016105c090611692565b6001805460ff60b01b1916600160b01b8315158102919091179182905560405160ff9190920416151581527fe54a969a3cddae18c208a02a1b332ea54eee2839e6be6cd34f38981945009ab29060200161061a565b600180546001600160a01b038381166001600160a01b0319831681179093556040519116919082907f8be0079c531659141344cd1fd0a4f28419497f9722a3daafe3b4186f6b6457e090600090a35050565b80356001600160a01b03811681146114ef57600080fd5b919050565b60006020828403121561150657600080fd5b61150f826114d8565b9392505050565b6000602080838503121561152957600080fd5b823567ffffffffffffffff8082111561154157600080fd5b818501915085601f83011261155557600080fd5b8135818111156115675761156761177e565b8060051b604051601f19603f8301168101818110858211171561158c5761158c61177e565b604052828152858101935084860182860187018a10156115ab57600080fd5b600095505b838610156115d5576115c1816114d8565b8552600195909501949386019386016115b0565b5098975050505050505050565b6000602082840312156115f457600080fd5b813561150f81611794565b60006020828403121561161157600080fd5b815161150f81611794565b60006020828403121561162e57600080fd5b5035919050565b6020808252603e908201527f467269657344414f546f6b656e53616c653a20616d6f756e7420746f2070757260408201527f6368617365206d757374206265206c6172676572207468616e207a65726f0000606082015260800190565b6020808252818101527f4f776e61626c653a2063616c6c6572206973206e6f7420746865206f776e6572604082015260600190565b600082198211156116da576116da611752565b500190565b6000826116fc57634e487b7160e01b600052601260045260246000fd5b500490565b600081600019048311821515161561171b5761171b611752565b500290565b60008282101561173257611732611752565b500390565b600060001982141561174b5761174b611752565b5060010190565b634e487b7160e01b600052601160045260246000fd5b634e487b7160e01b600052603260045260246000fd5b634e487b7160e01b600052604160045260246000fd5b801515811461140457600080fdfea264697066735822122051b5c7fda6b2edc0e85d3469cdd0cc5c3aa71611024ecf339e927e20e97a243364736f6c63430008070033",
    "sourcePath": "c:/Users/Slip1244/Desktop/github/contracts/fries/sale-usdc.sol",
    "compiler": {
        "name": "solc",
        "version": "0.8.7+commit.e28d00a7"
    },
    "functionHashes": {
        "FRIES()": "f2d06ad4",
        "USDC()": "89a30271",
        "buyFries(uint256)": "27bea43c",
        "buyWhitelistFries(uint256)": "3e95e190",
        "owner()": "8da5cb5b",
        "publicSaleActive()": "bc8893b4",
        "purchased(address)": "522fe98e",
        "redeemActive()": "98831513",
        "redeemFries()": "b77b6d23",
        "redeemed(address)": "9f4568ef",
        "refundActive()": "cb0269bc",
        "refundFries(uint256)": "de25626b",
        "renounceOwnership()": "715018a6",
        "salePrice()": "f51f96dd",
        "setPublicSaleActive(bool)": "e2e06fa3",
        "setRedeemActive(bool)": "fd18a9c6",
        "setRefundActive(bool)": "0dcbf8c6",
        "setSalePrice(uint256)": "1919fed7",
        "setWhitelistCap(uint256)": "a20e0bca",
        "setWhitelistSaleActive(bool)": "6a78f227",
        "totalCap()": "16450092",
        "totalPurchased()": "e632c2f3",
        "transferOwnership(address)": "f2fde38b",
        "whitelist(address)": "9b19251a",
        "whitelistAccounts(address[])": "5855279e",
        "whitelistCap()": "f634d519",
        "whitelistCount()": "f2624b5d",
        "whitelistSaleActive()": "3ad7f56c",
        "withdrawUSDC(uint256)": "db81f99b"
    },
    "gasEstimates": {
        "creation": {
            "codeDepositCost": "1220800",
            "executionCost": "infinite",
            "totalCost": "infinite"
        },
        "external": {
            "FRIES()": "infinite",
            "USDC()": "infinite",
            "buyFries(uint256)": "infinite",
            "buyWhitelistFries(uint256)": "infinite",
            "owner()": "2398",
            "publicSaleActive()": "2372",
            "purchased(address)": "2620",
            "redeemActive()": "2416",
            "redeemFries()": "infinite",
            "redeemed(address)": "2554",
            "refundActive()": "2394",
            "refundFries(uint256)": "infinite",
            "renounceOwnership()": "28207",
            "salePrice()": "2350",
            "setPublicSaleActive(bool)": "27831",
            "setRedeemActive(bool)": "27896",
            "setRefundActive(bool)": "27822",
            "setSalePrice(uint256)": "25632",
            "setWhitelistCap(uint256)": "25609",
            "setWhitelistSaleActive(bool)": "27854",
            "totalCap()": "2353",
            "totalPurchased()": "2351",
            "transferOwnership(address)": "28356",
            "whitelist(address)": "2642",
            "whitelistAccounts(address[])": "infinite",
            "whitelistCap()": "2372",
            "whitelistCount()": "2373",
            "whitelistSaleActive()": "2395",
            "withdrawUSDC(uint256)": "infinite"
        }
    }
}