{
  "_format": "hh-sol-artifact-1",
  "contractName": "FriesDAOToken",
  "sourceName": "contracts/token.sol",
  "abi": [
    {
      "inputs": [],
      "stateMutability": "nonpayable",
      "type": "constructor"
    },
    {
      "anonymous": false,
      "inputs": [
        {
          "indexed": false,
          "internalType": "address",
          "name": "added",
          "type": "address"
        }
      ],
      "name": "AdminAdded",
      "type": "event"
    },
    {
      "anonymous": false,
      "inputs": [
        {
          "indexed": false,
          "internalType": "address",
          "name": "removed",
          "type": "address"
        }
      ],
      "name": "AdminRemoved",
      "type": "event"
    },
    {
      "anonymous": false,
      "inputs": [
        {
          "indexed": true,
          "internalType": "address",
          "name": "owner",
          "type": "address"
        },
        {
          "indexed": true,
          "internalType": "address",
          "name": "spender",
          "type": "address"
        },
        {
          "indexed": false,
          "internalType": "uint256",
          "name": "value",
          "type": "uint256"
        }
      ],
      "name": "Approval",
      "type": "event"
    },
    {
      "anonymous": false,
      "inputs": [
        {
          "indexed": true,
          "internalType": "address",
          "name": "delegator",
          "type": "address"
        },
        {
          "indexed": true,
          "internalType": "address",
          "name": "fromDelegate",
          "type": "address"
        },
        {
          "indexed": true,
          "internalType": "address",
          "name": "toDelegate",
          "type": "address"
        }
      ],
      "name": "DelegateChanged",
      "type": "event"
    },
    {
      "anonymous": false,
      "inputs": [
        {
          "indexed": true,
          "internalType": "address",
          "name": "delegate",
          "type": "address"
        },
        {
          "indexed": false,
          "internalType": "uint256",
          "name": "previousBalance",
          "type": "uint256"
        },
        {
          "indexed": false,
          "internalType": "uint256",
          "name": "newBalance",
          "type": "uint256"
        }
      ],
      "name": "DelegateVotesChanged",
      "type": "event"
    },
    {
      "anonymous": false,
      "inputs": [
        {
          "indexed": true,
          "internalType": "address",
          "name": "previousOwner",
          "type": "address"
        },
        {
          "indexed": true,
          "internalType": "address",
          "name": "newOwner",
          "type": "address"
        }
      ],
      "name": "OwnershipTransferred",
      "type": "event"
    },
    {
      "anonymous": false,
      "inputs": [
        {
          "indexed": true,
          "internalType": "address",
          "name": "from",
          "type": "address"
        },
        {
          "indexed": true,
          "internalType": "address",
          "name": "to",
          "type": "address"
        },
        {
          "indexed": false,
          "internalType": "uint256",
          "name": "value",
          "type": "uint256"
        }
      ],
      "name": "Transfer",
      "type": "event"
    },
    {
      "inputs": [],
      "name": "DOMAIN_SEPARATOR",
      "outputs": [
        {
          "internalType": "bytes32",
          "name": "",
          "type": "bytes32"
        }
      ],
      "stateMutability": "view",
      "type": "function"
    },
    {
      "inputs": [
        {
          "internalType": "address",
          "name": "admin",
          "type": "address"
        }
      ],
      "name": "addAdmin",
      "outputs": [],
      "stateMutability": "nonpayable",
      "type": "function"
    },
    {
      "inputs": [
        {
          "internalType": "address",
          "name": "",
          "type": "address"
        }
      ],
      "name": "admins",
      "outputs": [
        {
          "internalType": "bool",
          "name": "",
          "type": "bool"
        }
      ],
      "stateMutability": "view",
      "type": "function"
    },
    {
      "inputs": [
        {
          "internalType": "address",
          "name": "owner",
          "type": "address"
        },
        {
          "internalType": "address",
          "name": "spender",
          "type": "address"
        }
      ],
      "name": "allowance",
      "outputs": [
        {
          "internalType": "uint256",
          "name": "",
          "type": "uint256"
        }
      ],
      "stateMutability": "view",
      "type": "function"
    },
    {
      "inputs": [
        {
          "internalType": "address",
          "name": "spender",
          "type": "address"
        },
        {
          "internalType": "uint256",
          "name": "amount",
          "type": "uint256"
        }
      ],
      "name": "approve",
      "outputs": [
        {
          "internalType": "bool",
          "name": "",
          "type": "bool"
        }
      ],
      "stateMutability": "nonpayable",
      "type": "function"
    },
    {
      "inputs": [
        {
          "internalType": "address",
          "name": "account",
          "type": "address"
        }
      ],
      "name": "balanceOf",
      "outputs": [
        {
          "internalType": "uint256",
          "name": "",
          "type": "uint256"
        }
      ],
      "stateMutability": "view",
      "type": "function"
    },
    {
      "inputs": [
        {
          "internalType": "uint256",
          "name": "amount",
          "type": "uint256"
        }
      ],
      "name": "burn",
      "outputs": [],
      "stateMutability": "nonpayable",
      "type": "function"
    },
    {
      "inputs": [
        {
          "internalType": "address",
          "name": "account",
          "type": "address"
        },
        {
          "internalType": "uint256",
          "name": "amount",
          "type": "uint256"
        }
      ],
      "name": "burnFrom",
      "outputs": [],
      "stateMutability": "nonpayable",
      "type": "function"
    },
    {
      "inputs": [
        {
          "internalType": "address",
          "name": "account",
          "type": "address"
        },
        {
          "internalType": "uint32",
          "name": "pos",
          "type": "uint32"
        }
      ],
      "name": "checkpoints",
      "outputs": [
        {
          "components": [
            {
              "internalType": "uint32",
              "name": "fromBlock",
              "type": "uint32"
            },
            {
              "internalType": "uint224",
              "name": "votes",
              "type": "uint224"
            }
          ],
          "internalType": "struct ERC20Votes.Checkpoint",
          "name": "",
          "type": "tuple"
        }
      ],
      "stateMutability": "view",
      "type": "function"
    },
    {
      "inputs": [],
      "name": "decimals",
      "outputs": [
        {
          "internalType": "uint8",
          "name": "",
          "type": "uint8"
        }
      ],
      "stateMutability": "view",
      "type": "function"
    },
    {
      "inputs": [
        {
          "internalType": "address",
          "name": "spender",
          "type": "address"
        },
        {
          "internalType": "uint256",
          "name": "subtractedValue",
          "type": "uint256"
        }
      ],
      "name": "decreaseAllowance",
      "outputs": [
        {
          "internalType": "bool",
          "name": "",
          "type": "bool"
        }
      ],
      "stateMutability": "nonpayable",
      "type": "function"
    },
    {
      "inputs": [
        {
          "internalType": "address",
          "name": "delegatee",
          "type": "address"
        }
      ],
      "name": "delegate",
      "outputs": [],
      "stateMutability": "nonpayable",
      "type": "function"
    },
    {
      "inputs": [
        {
          "internalType": "address",
          "name": "delegatee",
          "type": "address"
        },
        {
          "internalType": "uint256",
          "name": "nonce",
          "type": "uint256"
        },
        {
          "internalType": "uint256",
          "name": "expiry",
          "type": "uint256"
        },
        {
          "internalType": "uint8",
          "name": "v",
          "type": "uint8"
        },
        {
          "internalType": "bytes32",
          "name": "r",
          "type": "bytes32"
        },
        {
          "internalType": "bytes32",
          "name": "s",
          "type": "bytes32"
        }
      ],
      "name": "delegateBySig",
      "outputs": [],
      "stateMutability": "nonpayable",
      "type": "function"
    },
    {
      "inputs": [
        {
          "internalType": "address",
          "name": "account",
          "type": "address"
        }
      ],
      "name": "delegates",
      "outputs": [
        {
          "internalType": "address",
          "name": "",
          "type": "address"
        }
      ],
      "stateMutability": "view",
      "type": "function"
    },
    {
      "inputs": [
        {
          "internalType": "uint256",
          "name": "blockNumber",
          "type": "uint256"
        }
      ],
      "name": "getPastTotalSupply",
      "outputs": [
        {
          "internalType": "uint256",
          "name": "",
          "type": "uint256"
        }
      ],
      "stateMutability": "view",
      "type": "function"
    },
    {
      "inputs": [
        {
          "internalType": "address",
          "name": "account",
          "type": "address"
        },
        {
          "internalType": "uint256",
          "name": "blockNumber",
          "type": "uint256"
        }
      ],
      "name": "getPastVotes",
      "outputs": [
        {
          "internalType": "uint256",
          "name": "",
          "type": "uint256"
        }
      ],
      "stateMutability": "view",
      "type": "function"
    },
    {
      "inputs": [
        {
          "internalType": "address",
          "name": "account",
          "type": "address"
        }
      ],
      "name": "getVotes",
      "outputs": [
        {
          "internalType": "uint256",
          "name": "",
          "type": "uint256"
        }
      ],
      "stateMutability": "view",
      "type": "function"
    },
    {
      "inputs": [
        {
          "internalType": "address",
          "name": "spender",
          "type": "address"
        },
        {
          "internalType": "uint256",
          "name": "addedValue",
          "type": "uint256"
        }
      ],
      "name": "increaseAllowance",
      "outputs": [
        {
          "internalType": "bool",
          "name": "",
          "type": "bool"
        }
      ],
      "stateMutability": "nonpayable",
      "type": "function"
    },
    {
      "inputs": [
        {
          "internalType": "address",
          "name": "account",
          "type": "address"
        },
        {
          "internalType": "uint256",
          "name": "amount",
          "type": "uint256"
        }
      ],
      "name": "mint",
      "outputs": [],
      "stateMutability": "nonpayable",
      "type": "function"
    },
    {
      "inputs": [],
      "name": "name",
      "outputs": [
        {
          "internalType": "string",
          "name": "",
          "type": "string"
        }
      ],
      "stateMutability": "view",
      "type": "function"
    },
    {
      "inputs": [
        {
          "internalType": "address",
          "name": "owner",
          "type": "address"
        }
      ],
      "name": "nonces",
      "outputs": [
        {
          "internalType": "uint256",
          "name": "",
          "type": "uint256"
        }
      ],
      "stateMutability": "view",
      "type": "function"
    },
    {
      "inputs": [
        {
          "internalType": "address",
          "name": "account",
          "type": "address"
        }
      ],
      "name": "numCheckpoints",
      "outputs": [
        {
          "internalType": "uint32",
          "name": "",
          "type": "uint32"
        }
      ],
      "stateMutability": "view",
      "type": "function"
    },
    {
      "inputs": [],
      "name": "owner",
      "outputs": [
        {
          "internalType": "address",
          "name": "",
          "type": "address"
        }
      ],
      "stateMutability": "view",
      "type": "function"
    },
    {
      "inputs": [
        {
          "internalType": "address",
          "name": "owner",
          "type": "address"
        },
        {
          "internalType": "address",
          "name": "spender",
          "type": "address"
        },
        {
          "internalType": "uint256",
          "name": "value",
          "type": "uint256"
        },
        {
          "internalType": "uint256",
          "name": "deadline",
          "type": "uint256"
        },
        {
          "internalType": "uint8",
          "name": "v",
          "type": "uint8"
        },
        {
          "internalType": "bytes32",
          "name": "r",
          "type": "bytes32"
        },
        {
          "internalType": "bytes32",
          "name": "s",
          "type": "bytes32"
        }
      ],
      "name": "permit",
      "outputs": [],
      "stateMutability": "nonpayable",
      "type": "function"
    },
    {
      "inputs": [
        {
          "internalType": "address",
          "name": "admin",
          "type": "address"
        }
      ],
      "name": "removeAdmin",
      "outputs": [],
      "stateMutability": "nonpayable",
      "type": "function"
    },
    {
      "inputs": [],
      "name": "renounceOwnership",
      "outputs": [],
      "stateMutability": "nonpayable",
      "type": "function"
    },
    {
      "inputs": [],
      "name": "symbol",
      "outputs": [
        {
          "internalType": "string",
          "name": "",
          "type": "string"
        }
      ],
      "stateMutability": "view",
      "type": "function"
    },
    {
      "inputs": [],
      "name": "totalSupply",
      "outputs": [
        {
          "internalType": "uint256",
          "name": "",
          "type": "uint256"
        }
      ],
      "stateMutability": "view",
      "type": "function"
    },
    {
      "inputs": [
        {
          "internalType": "address",
          "name": "recipient",
          "type": "address"
        },
        {
          "internalType": "uint256",
          "name": "amount",
          "type": "uint256"
        }
      ],
      "name": "transfer",
      "outputs": [
        {
          "internalType": "bool",
          "name": "",
          "type": "bool"
        }
      ],
      "stateMutability": "nonpayable",
      "type": "function"
    },
    {
      "inputs": [
        {
          "internalType": "address",
          "name": "sender",
          "type": "address"
        },
        {
          "internalType": "address",
          "name": "recipient",
          "type": "address"
        },
        {
          "internalType": "uint256",
          "name": "amount",
          "type": "uint256"
        }
      ],
      "name": "transferFrom",
      "outputs": [
        {
          "internalType": "bool",
          "name": "",
          "type": "bool"
        }
      ],
      "stateMutability": "nonpayable",
      "type": "function"
    },
    {
      "inputs": [
        {
          "internalType": "address",
          "name": "newOwner",
          "type": "address"
        }
      ],
      "name": "transferOwnership",
      "outputs": [],
      "stateMutability": "nonpayable",
      "type": "function"
    }
  ],
  "bytecode": "0x6101606040527f6e71edae12b1b97f4d1f60370fef10105fa2faae0126114a169c64845d6126c9610140523480156200003757600080fd5b5060405180604001604052806005815260200164465249455360d81b81525080604051806040016040528060018152602001603160f81b81525060405180604001604052806008815260200167667269657344414f60c01b81525060405180604001604052806005815260200164465249455360d81b8152508160039080519060200190620000c8929190620001e9565b508051620000de906004906020840190620001e9565b5050825160208085019190912083518483012060e08290526101008190524660a0818152604080517f8b73c3c69bb8fe3d512ecc4cf759cc79239f7b179b0ffacaa9a75d522b39400f81880181905281830187905260608201869052608082019490945230818401528151808203909301835260c0019052805194019390932091935091906080523060601b60c05261012052506200018d935062000187925050620001939050565b62000197565b620002cc565b3390565b600980546001600160a01b038381166001600160a01b0319831681179093556040519116919082907f8be0079c531659141344cd1fd0a4f28419497f9722a3daafe3b4186f6b6457e090600090a35050565b828054620001f7906200028f565b90600052602060002090601f0160209004810192826200021b576000855562000266565b82601f106200023657805160ff191683800117855562000266565b8280016001018555821562000266579182015b828111156200026657825182559160200191906001019062000249565b506200027492915062000278565b5090565b5b8082111562000274576000815560010162000279565b600181811c90821680620002a457607f821691505b60208210811415620002c657634e487b7160e01b600052602260045260246000fd5b50919050565b60805160a05160c05160601c60e0516101005161012051610140516123346200032a6000396000610dc60152600061137a015260006113c9015260006113a4015260006112fd015260006113270152600061135101526123346000f3fe608060405234801561001057600080fd5b50600436106101e55760003560e01c8063704802751161010f5780639ab24eb0116100a2578063d505accf11610071578063d505accf1461044c578063dd62ed3e1461045f578063f1127ed814610498578063f2fde38b146104d557600080fd5b80639ab24eb014610400578063a457c2d714610413578063a9059cbb14610426578063c3cda5201461043957600080fd5b80637ecebe00116100de5780637ecebe00146103c15780638da5cb5b146103d45780638e539e8c146103e557806395d89b41146103f857600080fd5b8063704802751461036a57806370a082311461037d578063715018a6146103a657806379cc6790146103ae57600080fd5b80633950935111610187578063429b62e511610156578063429b62e5146102c8578063587cde1e146102eb5780635c19a95c1461032f5780636fcfff451461034257600080fd5b8063395093511461027c5780633a46b1a81461028f57806340c10f19146102a257806342966c68146102b557600080fd5b806318160ddd116101c357806318160ddd1461024057806323b872dd14610252578063313ce567146102655780633644e5151461027457600080fd5b806306fdde03146101ea578063095ea7b3146102085780631785f53c1461022b575b600080fd5b6101f26104e8565b6040516101ff91906121ac565b60405180910390f35b61021b6102163660046120d1565b61057a565b60405190151581526020016101ff565b61023e610239366004611fdd565b610590565b005b6002545b6040519081526020016101ff565b61021b61026036600461202b565b610692565b604051601281526020016101ff565b61024461073c565b61021b61028a3660046120d1565b61074b565b61024461029d3660046120d1565b610787565b61023e6102b03660046120d1565b610801565b61023e6102c3366004612193565b610891565b61021b6102d6366004611fdd565b600a6020526000908152604090205460ff1681565b6103176102f9366004611fdd565b6001600160a01b039081166000908152600660205260409020541690565b6040516001600160a01b0390911681526020016101ff565b61023e61033d366004611fdd565b61089e565b610355610350366004611fdd565b6108a8565b60405163ffffffff90911681526020016101ff565b61023e610378366004611fdd565b6108d0565b61024461038b366004611fdd565b6001600160a01b031660009081526020819052604090205490565b61023e6109ca565b61023e6103bc3660046120d1565b610a00565b6102446103cf366004611fdd565b610a86565b6009546001600160a01b0316610317565b6102446103f3366004612193565b610aa4565b6101f2610b00565b61024461040e366004611fdd565b610b0f565b61021b6104213660046120d1565b610b96565b61021b6104343660046120d1565b610c2f565b61023e6104473660046120fb565b610c3c565b61023e61045a366004612067565b610d72565b61024461046d366004611ff8565b6001600160a01b03918216600090815260016020908152604080832093909416825291909152205490565b6104ab6104a6366004612153565b610ed6565b60408051825163ffffffff1681526020928301516001600160e01b031692810192909252016101ff565b61023e6104e3366004611fdd565b610f5a565b6060600380546104f790612287565b80601f016020809104026020016040519081016040528092919081815260200182805461052390612287565b80156105705780601f1061054557610100808354040283529160200191610570565b820191906000526020600020905b81548152906001019060200180831161055357829003601f168201915b5050505050905090565b6000610587338484610ff2565b50600192915050565b6009546001600160a01b031633146105c35760405162461bcd60e51b81526004016105ba90612201565b60405180910390fd5b6001600160a01b0381166000908152600a602052604090205460ff1661063a5760405162461bcd60e51b815260206004820152602660248201527f41646d696e6973747261626c653a2061646472657373206973206e6f7420616e6044820152651030b236b4b760d11b60648201526084016105ba565b6001600160a01b0381166000818152600a6020908152604091829020805460ff1916905590519182527fa3b62bc36326052d97ea62d63c3d60308ed4c3ea8ac079dd8499f1e9c4f80c0f91015b60405180910390a150565b600061069f848484611116565b6001600160a01b0384166000908152600160209081526040808320338452909152902054828110156107245760405162461bcd60e51b815260206004820152602860248201527f45524332303a207472616e7366657220616d6f756e74206578636565647320616044820152676c6c6f77616e636560c01b60648201526084016105ba565b6107318533858403610ff2565b506001949350505050565b60006107466112f0565b905090565b3360008181526001602090815260408083206001600160a01b03871684529091528120549091610587918590610782908690612236565b610ff2565b60004382106107d85760405162461bcd60e51b815260206004820152601f60248201527f4552433230566f7465733a20626c6f636b206e6f7420796574206d696e65640060448201526064016105ba565b6001600160a01b03831660009081526007602052604090206107fa9083611417565b9392505050565b336000908152600a602052604090205460ff168061082957506009546001600160a01b031633145b6108835760405162461bcd60e51b815260206004820152602560248201527f41646d696e6973747261626c653a2063616c6c6572206973206e6f7420616e2060448201526430b236b4b760d91b60648201526084016105ba565b61088d82826114d4565b5050565b61089b338261155e565b50565b61089b3382611576565b6001600160a01b0381166000908152600760205260408120546108ca906115ef565b92915050565b6009546001600160a01b031633146108fa5760405162461bcd60e51b81526004016105ba90612201565b6001600160a01b0381166000908152600a602052604090205460ff16156109765760405162461bcd60e51b815260206004820152602a60248201527f41646d696e6973747261626c653a206164647265737320697320616c726561646044820152693c9030b71030b236b4b760b11b60648201526084016105ba565b6001600160a01b0381166000818152600a6020908152604091829020805460ff1916600117905590519182527f44d6d25963f097ad14f29f06854a01f575648a1ef82f30e562ccd3889717e3399101610687565b6009546001600160a01b031633146109f45760405162461bcd60e51b81526004016105ba90612201565b6109fe6000611658565b565b6000610a0c833361046d565b905081811015610a6a5760405162461bcd60e51b8152602060048201526024808201527f45524332303a206275726e20616d6f756e74206578636565647320616c6c6f77604482015263616e636560e01b60648201526084016105ba565b610a778333848403610ff2565b610a81838361155e565b505050565b6001600160a01b0381166000908152600560205260408120546108ca565b6000438210610af55760405162461bcd60e51b815260206004820152601f60248201527f4552433230566f7465733a20626c6f636b206e6f7420796574206d696e65640060448201526064016105ba565b6108ca600883611417565b6060600480546104f790612287565b6001600160a01b0381166000908152600760205260408120548015610b83576001600160a01b0383166000908152600760205260409020610b51600183612270565b81548110610b6157610b616122e8565b60009182526020909120015464010000000090046001600160e01b0316610b86565b60005b6001600160e01b03169392505050565b3360009081526001602090815260408083206001600160a01b038616845290915281205482811015610c185760405162461bcd60e51b815260206004820152602560248201527f45524332303a2064656372656173656420616c6c6f77616e63652062656c6f77604482015264207a65726f60d81b60648201526084016105ba565b610c253385858403610ff2565b5060019392505050565b6000610587338484611116565b83421115610c8c5760405162461bcd60e51b815260206004820152601d60248201527f4552433230566f7465733a207369676e6174757265206578706972656400000060448201526064016105ba565b604080517fe48329057bfd03d55e49b547132e39cffd9c1820ad7b9d4c5307691425d15adf60208201526001600160a01b038816918101919091526060810186905260808101859052600090610d0690610cfe9060a001604051602081830303815290604052805190602001206116aa565b8585856116f8565b9050610d1181611720565b8614610d5f5760405162461bcd60e51b815260206004820152601960248201527f4552433230566f7465733a20696e76616c6964206e6f6e63650000000000000060448201526064016105ba565b610d698188611576565b50505050505050565b83421115610dc25760405162461bcd60e51b815260206004820152601d60248201527f45524332305065726d69743a206578706972656420646561646c696e6500000060448201526064016105ba565b60007f0000000000000000000000000000000000000000000000000000000000000000888888610df18c611720565b6040805160208101969096526001600160a01b0394851690860152929091166060840152608083015260a082015260c0810186905260e0016040516020818303038152906040528051906020012090506000610e4c826116aa565b90506000610e5c828787876116f8565b9050896001600160a01b0316816001600160a01b031614610ebf5760405162461bcd60e51b815260206004820152601e60248201527f45524332305065726d69743a20696e76616c6964207369676e6174757265000060448201526064016105ba565b610eca8a8a8a610ff2565b50505050505050505050565b60408051808201909152600080825260208201526001600160a01b0383166000908152600760205260409020805463ffffffff8416908110610f1a57610f1a6122e8565b60009182526020918290206040805180820190915291015463ffffffff8116825264010000000090046001600160e01b0316918101919091529392505050565b6009546001600160a01b03163314610f845760405162461bcd60e51b81526004016105ba90612201565b6001600160a01b038116610fe95760405162461bcd60e51b815260206004820152602660248201527f4f776e61626c653a206e6577206f776e657220697320746865207a65726f206160448201526564647265737360d01b60648201526084016105ba565b61089b81611658565b6001600160a01b0383166110545760405162461bcd60e51b8152602060048201526024808201527f45524332303a20617070726f76652066726f6d20746865207a65726f206164646044820152637265737360e01b60648201526084016105ba565b6001600160a01b0382166110b55760405162461bcd60e51b815260206004820152602260248201527f45524332303a20617070726f766520746f20746865207a65726f206164647265604482015261737360f01b60648201526084016105ba565b6001600160a01b0383811660008181526001602090815260408083209487168084529482529182902085905590518481527f8c5be1e5ebec7d5bd14f71427d1e84f3dd0314c0f7b2291e5b200ac8c7c3b925910160405180910390a3505050565b6001600160a01b03831661117a5760405162461bcd60e51b815260206004820152602560248201527f45524332303a207472616e736665722066726f6d20746865207a65726f206164604482015264647265737360d81b60648201526084016105ba565b6001600160a01b0382166111dc5760405162461bcd60e51b815260206004820152602360248201527f45524332303a207472616e7366657220746f20746865207a65726f206164647260448201526265737360e81b60648201526084016105ba565b6001600160a01b038316600090815260208190526040902054818110156112545760405162461bcd60e51b815260206004820152602660248201527f45524332303a207472616e7366657220616d6f756e7420657863656564732062604482015265616c616e636560d01b60648201526084016105ba565b6001600160a01b0380851660009081526020819052604080822085850390559185168152908120805484929061128b908490612236565b92505081905550826001600160a01b0316846001600160a01b03167fddf252ad1be2c89b69c2b068fc378daa952ba7f163c4a11628f55a4df523b3ef846040516112d791815260200190565b60405180910390a36112ea848484611748565b50505050565b6000306001600160a01b037f00000000000000000000000000000000000000000000000000000000000000001614801561134957507f000000000000000000000000000000000000000000000000000000000000000046145b1561137357507f000000000000000000000000000000000000000000000000000000000000000090565b50604080517f00000000000000000000000000000000000000000000000000000000000000006020808301919091527f0000000000000000000000000000000000000000000000000000000000000000828401527f000000000000000000000000000000000000000000000000000000000000000060608301524660808301523060a0808401919091528351808403909101815260c0909201909252805191012090565b8154600090815b8181101561147b576000611432828461177a565b905084868281548110611447576114476122e8565b60009182526020909120015463ffffffff16111561146757809250611475565b611472816001612236565b91505b5061141e565b81156114bf578461148d600184612270565b8154811061149d5761149d6122e8565b60009182526020909120015464010000000090046001600160e01b03166114c2565b60005b6001600160e01b031695945050505050565b6114de8282611795565b6002546001600160e01b0310156115505760405162461bcd60e51b815260206004820152603060248201527f4552433230566f7465733a20746f74616c20737570706c79207269736b73206f60448201526f766572666c6f77696e6720766f74657360801b60648201526084016105ba565b6112ea600861187c83611888565b6115688282611a01565b6112ea6008611b5683611888565b6001600160a01b038281166000818152600660208181526040808420805485845282862054949093528787166001600160a01b03198416811790915590519190951694919391928592917f3134e8a2e6d97e929a7e54011ea5485d7d196dd5f0ba4d4ef95803e8e3fc257f9190a46112ea828483611b62565b600063ffffffff8211156116545760405162461bcd60e51b815260206004820152602660248201527f53616665436173743a2076616c756520646f65736e27742066697420696e203360448201526532206269747360d01b60648201526084016105ba565b5090565b600980546001600160a01b038381166001600160a01b0319831681179093556040519116919082907f8be0079c531659141344cd1fd0a4f28419497f9722a3daafe3b4186f6b6457e090600090a35050565b60006108ca6116b76112f0565b8360405161190160f01b6020820152602281018390526042810182905260009060620160405160208183030381529060405280519060200120905092915050565b600080600061170987878787611c9f565b9150915061171681611d8c565b5095945050505050565b6001600160a01b03811660009081526005602052604090208054600181018255905b50919050565b6001600160a01b03838116600090815260066020526040808220548584168352912054610a8192918216911683611b62565b6000611789600284841861224e565b6107fa90848416612236565b6001600160a01b0382166117eb5760405162461bcd60e51b815260206004820152601f60248201527f45524332303a206d696e7420746f20746865207a65726f20616464726573730060448201526064016105ba565b80600260008282546117fd9190612236565b90915550506001600160a01b0382166000908152602081905260408120805483929061182a908490612236565b90915550506040518181526001600160a01b038316906000907fddf252ad1be2c89b69c2b068fc378daa952ba7f163c4a11628f55a4df523b3ef9060200160405180910390a361088d60008383611748565b60006107fa8284612236565b8254600090819080156118d357856118a1600183612270565b815481106118b1576118b16122e8565b60009182526020909120015464010000000090046001600160e01b03166118d6565b60005b6001600160e01b031692506118ef83858763ffffffff16565b915060008111801561192d57504386611909600184612270565b81548110611919576119196122e8565b60009182526020909120015463ffffffff16145b1561198d5761193b82611f47565b86611947600184612270565b81548110611957576119576122e8565b9060005260206000200160000160046101000a8154816001600160e01b0302191690836001600160e01b031602179055506119f8565b8560405180604001604052806119a2436115ef565b63ffffffff1681526020016119b685611f47565b6001600160e01b0390811690915282546001810184556000938452602093849020835194909301519091166401000000000263ffffffff909316929092179101555b50935093915050565b6001600160a01b038216611a615760405162461bcd60e51b815260206004820152602160248201527f45524332303a206275726e2066726f6d20746865207a65726f206164647265736044820152607360f81b60648201526084016105ba565b6001600160a01b03821660009081526020819052604090205481811015611ad55760405162461bcd60e51b815260206004820152602260248201527f45524332303a206275726e20616d6f756e7420657863656564732062616c616e604482015261636560f01b60648201526084016105ba565b6001600160a01b0383166000908152602081905260408120838303905560028054849290611b04908490612270565b90915550506040518281526000906001600160a01b038516907fddf252ad1be2c89b69c2b068fc378daa952ba7f163c4a11628f55a4df523b3ef9060200160405180910390a3610a8183600084611748565b60006107fa8284612270565b816001600160a01b0316836001600160a01b031614158015611b845750600081115b15610a81576001600160a01b03831615611c12576001600160a01b03831660009081526007602052604081208190611bbf90611b5685611888565b91509150846001600160a01b03167fdec2bacdd2f05b59de34da9b523dff8be42e5e38e818c82fdb0bae774387a7248383604051611c07929190918252602082015260400190565b60405180910390a250505b6001600160a01b03821615610a81576001600160a01b03821660009081526007602052604081208190611c489061187c85611888565b91509150836001600160a01b03167fdec2bacdd2f05b59de34da9b523dff8be42e5e38e818c82fdb0bae774387a7248383604051611c90929190918252602082015260400190565b60405180910390a25050505050565b6000807f7fffffffffffffffffffffffffffffff5d576e7357a4501ddfe92f46681b20a0831115611cd65750600090506003611d83565b8460ff16601b14158015611cee57508460ff16601c14155b15611cff5750600090506004611d83565b6040805160008082526020820180845289905260ff881692820192909252606081018690526080810185905260019060a0016020604051602081039080840390855afa158015611d53573d6000803e3d6000fd5b5050604051601f1901519150506001600160a01b038116611d7c57600060019250925050611d83565b9150600090505b94509492505050565b6000816004811115611da057611da06122d2565b1415611da95750565b6001816004811115611dbd57611dbd6122d2565b1415611e0b5760405162461bcd60e51b815260206004820152601860248201527f45434453413a20696e76616c6964207369676e6174757265000000000000000060448201526064016105ba565b6002816004811115611e1f57611e1f6122d2565b1415611e6d5760405162461bcd60e51b815260206004820152601f60248201527f45434453413a20696e76616c6964207369676e6174757265206c656e6774680060448201526064016105ba565b6003816004811115611e8157611e816122d2565b1415611eda5760405162461bcd60e51b815260206004820152602260248201527f45434453413a20696e76616c6964207369676e6174757265202773272076616c604482015261756560f01b60648201526084016105ba565b6004816004811115611eee57611eee6122d2565b141561089b5760405162461bcd60e51b815260206004820152602260248201527f45434453413a20696e76616c6964207369676e6174757265202776272076616c604482015261756560f01b60648201526084016105ba565b60006001600160e01b038211156116545760405162461bcd60e51b815260206004820152602760248201527f53616665436173743a2076616c756520646f65736e27742066697420696e20326044820152663234206269747360c81b60648201526084016105ba565b80356001600160a01b0381168114611fc757600080fd5b919050565b803560ff81168114611fc757600080fd5b600060208284031215611fef57600080fd5b6107fa82611fb0565b6000806040838503121561200b57600080fd5b61201483611fb0565b915061202260208401611fb0565b90509250929050565b60008060006060848603121561204057600080fd5b61204984611fb0565b925061205760208501611fb0565b9150604084013590509250925092565b600080600080600080600060e0888a03121561208257600080fd5b61208b88611fb0565b965061209960208901611fb0565b955060408801359450606088013593506120b560808901611fcc565b925060a0880135915060c0880135905092959891949750929550565b600080604083850312156120e457600080fd5b6120ed83611fb0565b946020939093013593505050565b60008060008060008060c0878903121561211457600080fd5b61211d87611fb0565b9550602087013594506040870135935061213960608801611fcc565b92506080870135915060a087013590509295509295509295565b6000806040838503121561216657600080fd5b61216f83611fb0565b9150602083013563ffffffff8116811461218857600080fd5b809150509250929050565b6000602082840312156121a557600080fd5b5035919050565b600060208083528351808285015260005b818110156121d9578581018301518582016040015282016121bd565b818111156121eb576000604083870101525b50601f01601f1916929092016040019392505050565b6020808252818101527f4f776e61626c653a2063616c6c6572206973206e6f7420746865206f776e6572604082015260600190565b60008219821115612249576122496122bc565b500190565b60008261226b57634e487b7160e01b600052601260045260246000fd5b500490565b600082821015612282576122826122bc565b500390565b600181811c9082168061229b57607f821691505b6020821081141561174257634e487b7160e01b600052602260045260246000fd5b634e487b7160e01b600052601160045260246000fd5b634e487b7160e01b600052602160045260246000fd5b634e487b7160e01b600052603260045260246000fdfea264697066735822122024ac78b3e52f6ac9855f3d3bf6a0b0810a3e7c931c1b72a4856aa33a9f27e4cc64736f6c63430008070033",
  "linkReferences": {},
  "deployedLinkReferences": {}
}